{
  "contractName": "Lottery",
  "abi": [
    {
      "constant": true,
      "inputs": [],
      "name": "owner",
      "outputs": [
        {
          "name": "",
          "type": "address"
        }
      ],
      "payable": false,
      "stateMutability": "view",
      "type": "function"
    },
    {
      "constant": false,
      "inputs": [
        {
          "name": "_newOwner",
          "type": "address"
        }
      ],
      "name": "transferOwnership",
      "outputs": [],
      "payable": false,
      "stateMutability": "nonpayable",
      "type": "function"
    },
    {
      "anonymous": false,
      "inputs": [
        {
          "indexed": false,
          "name": "integer",
          "type": "uint256"
        }
      ],
      "name": "printInt",
      "type": "event"
    },
    {
      "anonymous": false,
      "inputs": [
        {
          "indexed": false,
          "name": "boolean",
          "type": "bool"
        }
      ],
      "name": "printBool",
      "type": "event"
    },
    {
      "constant": false,
      "inputs": [
        {
          "name": "_numbers",
          "type": "uint256[8]"
        }
      ],
      "name": "postGame",
      "outputs": [
        {
          "name": "",
          "type": "uint256[]"
        }
      ],
      "payable": true,
      "stateMutability": "payable",
      "type": "function"
    },
    {
      "constant": false,
      "inputs": [],
      "name": "getWinnerGame",
      "outputs": [
        {
          "name": "",
          "type": "uint256[8]"
        }
      ],
      "payable": false,
      "stateMutability": "nonpayable",
      "type": "function"
    },
    {
      "constant": true,
      "inputs": [],
      "name": "getTimeNextGame",
      "outputs": [
        {
          "name": "",
          "type": "uint256"
        }
      ],
      "payable": false,
      "stateMutability": "view",
      "type": "function"
    },
    {
      "constant": true,
      "inputs": [],
      "name": "getComulatedPrize",
      "outputs": [
        {
          "name": "",
          "type": "uint256"
        }
      ],
      "payable": false,
      "stateMutability": "view",
      "type": "function"
    },
    {
      "constant": true,
      "inputs": [],
      "name": "getOwnerReward",
      "outputs": [
        {
          "name": "",
          "type": "uint256"
        }
      ],
      "payable": false,
      "stateMutability": "view",
      "type": "function"
    },
    {
      "constant": false,
      "inputs": [],
      "name": "withdrawAsOwner",
      "outputs": [],
      "payable": false,
      "stateMutability": "nonpayable",
      "type": "function"
    },
    {
      "constant": true,
      "inputs": [],
      "name": "showWinnersGame",
      "outputs": [
        {
          "name": "",
          "type": "uint256[]"
        }
      ],
      "payable": false,
      "stateMutability": "view",
      "type": "function"
    }
  ],
  "bytecode": "0x6080604052336000806101000a81548173ffffffffffffffffffffffffffffffffffffffff021916908373ffffffffffffffffffffffffffffffffffffffff160217905550670de0b6b3a764000060015566470de4df820000600255602d600b5542600c5534801561007057600080fd5b5061173e806100806000396000f3fe6080604052600436106100865760003560e01c80636716466d116100595780636716466d146101b45780637509d8d8146101df5780638da5cb5b14610232578063932004b214610289578063f2fde38b146102f557610086565b806324a7ab161461008b5780633a4a5204146100a25780633ca8d645146100cd57806355af843e146100f8575b600080fd5b34801561009757600080fd5b506100a0610346565b005b3480156100ae57600080fd5b506100b7610461565b6040518082815260200191505060405180910390f35b3480156100d957600080fd5b506100e261046b565b6040518082815260200191505060405180910390f35b61015d600480360361010081101561010f57600080fd5b810190808061010001906008806020026040519081016040528092919082600860200280828437600081840152601f19601f8201169050808301925050505050509192919290505050610475565b6040518080602001828103825283818151815260200191508051906020019060200280838360005b838110156101a0578082015181840152602081019050610185565b505050509050019250505060405180910390f35b3480156101c057600080fd5b506101c96107ad565b6040518082815260200191505060405180910390f35b3480156101eb57600080fd5b506101f46107d1565b6040518082600860200280838360005b8381101561021f578082015181840152602081019050610204565b5050505090500191505060405180910390f35b34801561023e57600080fd5b50610247610bdd565b604051808273ffffffffffffffffffffffffffffffffffffffff1673ffffffffffffffffffffffffffffffffffffffff16815260200191505060405180910390f35b34801561029557600080fd5b5061029e610c02565b6040518080602001828103825283818151815260200191508051906020019060200280838360005b838110156102e15780820151818401526020810190506102c6565b505050509050019250505060405180910390f35b34801561030157600080fd5b506103446004803603602081101561031857600080fd5b81019080803573ffffffffffffffffffffffffffffffffffffffff169060200190929190505050610c5a565b005b6000809054906101000a900473ffffffffffffffffffffffffffffffffffffffff1673ffffffffffffffffffffffffffffffffffffffff163373ffffffffffffffffffffffffffffffffffffffff1614610408576040517f08c379a000000000000000000000000000000000000000000000000000000000815260040180806020018281038252601b8152602001807f6f6e6c79206f776e65722063616e20657865637574652074686973000000000081525060200191505060405180910390fd5b6000601154905060006011819055503373ffffffffffffffffffffffffffffffffffffffff166108fc829081150290604051600060405180830381858888f1935050505015801561045d573d6000803e3d6000fd5b5050565b6000601154905090565b6000601054905090565b6060600154803410156104f0576040517f08c379a00000000000000000000000000000000000000000000000000000000081526004018080602001828103825260128152602001807f696e737566696369656e7420616d6f756e74000000000000000000000000000081525060200191505060405180910390fd5b600254600154036010600082825401925050819055506010543073ffffffffffffffffffffffffffffffffffffffff1631036011819055506010543073ffffffffffffffffffffffffffffffffffffffff1631101561054b57fe5b6000339050600061055b82610d5f565b90507fb83141d06b456f990d9f9acc2507ff1475ecff2869b88a9fbfb059ed7d8bb63281604051808215151515815260200191505060405180910390a1801561065857600e8290806001815401808255809150509060018203906000526020600020016000909192909190916101000a81548173ffffffffffffffffffffffffffffffffffffffff021916908373ffffffffffffffffffffffffffffffffffffffff1602179055505084600d60008473ffffffffffffffffffffffffffffffffffffffff1673ffffffffffffffffffffffffffffffffffffffff1681526020019081526020016000209060086106529291906115f9565b506106f5565b6000600d60008473ffffffffffffffffffffffffffffffffffffffff1673ffffffffffffffffffffffffffffffffffffffff168152602001908152602001600020905060008090505b60088110156106f257818782600881106106b757fe5b6020020151908060018154018082558091505090600182039060005260206000200160009091929091909150555080806001019150506106a1565b50505b60006106ff6107ad565b14156107155742600c81905550610714610e01565b5b600d60008373ffffffffffffffffffffffffffffffffffffffff1673ffffffffffffffffffffffffffffffffffffffff16815260200190815260200160002080548060200260200160405190810160405280929190818152602001828054801561079e57602002820191906000526020600020905b81548152602001906001019080831161078a575b50505050509350505050919050565b60008042600c54600b5401039050600b548111156107ca57600090505b8091505090565b6107d9611646565b6107e1611669565b604051806101000160405280600060e01b7bffffffffffffffffffffffffffffffffffffffffffffffffffffffff19167bffffffffffffffffffffffffffffffffffffffffffffffffffffffff19168152602001600060e01b7bffffffffffffffffffffffffffffffffffffffffffffffffffffffff19168152602001600060e01b7bffffffffffffffffffffffffffffffffffffffffffffffffffffffff19168152602001600060e01b7bffffffffffffffffffffffffffffffffffffffffffffffffffffffff19168152602001600060e01b7bffffffffffffffffffffffffffffffffffffffffffffffffffffffff19168152602001600060e01b7bffffffffffffffffffffffffffffffffffffffffffffffffffffffff19168152602001600060e01b7bffffffffffffffffffffffffffffffffffffffffffffffffffffffff19168152602001600060e01b7bffffffffffffffffffffffffffffffffffffffffffffffffffffffff19168152509050600061095e610e14565b90506000816040516020018082815260200191505060405160208183030381529060405280519060200120905080835280601c84015280603884015280605484015280607084015280608c8401528060a88401528060c48401526000836000600881106109c757fe5b602002015160e01c63ffffffff169050602081816109e157fe5b0690506000846001600881106109f357fe5b602002015160e01c63ffffffff16905060208181610a0d57fe5b069050600085600260088110610a1f57fe5b602002015160e01c63ffffffff16905060208181610a3957fe5b069050600086600360088110610a4b57fe5b602002015160e01c63ffffffff16905060208181610a6557fe5b069050600087600460088110610a7757fe5b602002015160e01c63ffffffff16905060208181610a9157fe5b069050600088600560088110610aa357fe5b602002015160e01c63ffffffff16905060208181610abd57fe5b069050600089600660088110610acf57fe5b602002015160e01c63ffffffff16905060208181610ae957fe5b06905060008a600760088110610afb57fe5b602002015160e01c63ffffffff16905060208181610b1557fe5b069050610b20611646565b6040518061010001604052808a8152602001898152602001888152602001878152602001868152602001858152602001848152602001838152509050610b6c8160006001600803610e1d565b610b7581610f39565b806003906008610b8692919061168c565b5042600c819055506003600880602002604051908101604052809291908260088015610bc7576020028201915b815481526020019060010190808311610bb3575b50505050509c5050505050505050505050505090565b6000809054906101000a900473ffffffffffffffffffffffffffffffffffffffff1681565b60606012805480602002602001604051908101604052809291908181526020018280548015610c5057602002820191906000526020600020905b815481526020019060010190808311610c3c575b5050505050905090565b6000809054906101000a900473ffffffffffffffffffffffffffffffffffffffff1673ffffffffffffffffffffffffffffffffffffffff163373ffffffffffffffffffffffffffffffffffffffff1614610d1c576040517f08c379a000000000000000000000000000000000000000000000000000000000815260040180806020018281038252601b8152602001807f6f6e6c79206f776e65722063616e20657865637574652074686973000000000081525060200191505060405180910390fd5b806000806101000a81548173ffffffffffffffffffffffffffffffffffffffff021916908373ffffffffffffffffffffffffffffffffffffffff16021790555050565b600080600090505b600e80549050811015610df6578273ffffffffffffffffffffffffffffffffffffffff16600e8281548110610d9857fe5b9060005260206000200160009054906101000a900473ffffffffffffffffffffffffffffffffffffffff1673ffffffffffffffffffffffffffffffffffffffff161415610de9576000915050610dfc565b8080600101915050610d67565b50600190505b919050565b610e096110b8565b610e11611319565b50565b60006001905090565b60008290506000829050600085600286860381610e3657fe5b04860160088110610e4357fe5b602002015190505b818311610f09575b80868460088110610e6057fe5b60200201511015610e78578280600101935050610e53565b5b858260088110610e8557fe5b6020020151811015610e9f57818060019003925050610e79565b818311610f0457858260088110610eb257fe5b6020020151868460088110610ec357fe5b6020020151878560088110610ed457fe5b60200201888560088110610ee457fe5b602002018281525082815250505082806001019350508180600190039250505b610e4b565b81851015610f1d57610f1c868684610e1d565b5b83831015610f3157610f30868486610e1d565b5b505050505050565b60006001905060006001905060006001905060006001905060008090505b600881101561105c57600086600060088110610f6f57fe5b60200201511415610f9357602086600060088110610f8957fe5b6020020181815250505b6020868260088110610fa157fe5b60200201511115610fe1576020868260088110610fba57fe5b602002015181610fc657fe5b06868260088110610fd357fe5b602002018181525050600093505b6008600182011080156110165750856001820160088110610ffe57fe5b602002015186826008811061100f57fe5b6020020151145b1561104f57600186600183016008811061102c57fe5b60200201510186600183016008811061104157fe5b602002018181525050600092505b8080600101915050610f57565b508380156110675750825b80156110705750815b80156110795750805b156110975761108e8560006001600803610e1d565b505050506110b5565b6110a78560006001600803610e1d565b6110b085610f39565b505050505b50565b6110c06107d1565b60039060086110d092919061168c565b5060008090505b6008811015611127576012600382600881106110ef57fe5b0154908060018154018082558091505090600182039060005260206000200160009091929091909150555080806001019150506110d7565b5060008090505b600e80549050811015611316576000600e828154811061114a57fe5b9060005260206000200160009054906101000a900473ffffffffffffffffffffffffffffffffffffffff1690506000600d60008373ffffffffffffffffffffffffffffffffffffffff1673ffffffffffffffffffffffffffffffffffffffff168152602001908152602001600020905061125060036008806020026040519081016040528092919082600880156111f6576020028201915b8154815260200190600101908083116111e2575b50505050508280548060200260200160405190810160405280929190818152602001828054801561124657602002820191906000526020600020905b815481526020019060010190808311611232575b505050505061142c565b156112bc57600f8290806001815401808255809150509060018203906000526020600020016000909192909190916101000a81548173ffffffffffffffffffffffffffffffffffffffff021916908373ffffffffffffffffffffffffffffffffffffffff160217905550505b600d60008373ffffffffffffffffffffffffffffffffffffffff1673ffffffffffffffffffffffffffffffffffffffff168152602001908152602001600020600061130791906116cc565b5050808060010191505061112e565b50565b600080600f8054905090506000811415611337576000915050611429565b6000816010548161134457fe5b049050600060108190555060008090505b8281101561142257600f818154811061136a57fe5b9060005260206000200160009054906101000a900473ffffffffffffffffffffffffffffffffffffffff1673ffffffffffffffffffffffffffffffffffffffff166108fc839081150290604051600060405180830381858888f193505050501580156113da573d6000803e3d6000fd5b50600f81815481106113e857fe5b9060005260206000200160006101000a81549073ffffffffffffffffffffffffffffffffffffffff02191690558080600101915050611355565b5080925050505b90565b600080600883518161143a57fe5b04905060008090505b8181101561148e576000816008029050600060016008846008020103905061146d8787848461149b565b1561147f576001945050505050611495565b50508080600101915050611443565b5060009150505b92915050565b6000600160080383830314611518576040517f08c379a000000000000000000000000000000000000000000000000000000000815260040180806020018281038252601c8152602001807f6e6f7420676f6f64207175616e74697479206f66206e756d626572730000000081525060200191505060405180910390fd5b60006008600184018161152757fe5b061461159b576040517f08c379a00000000000000000000000000000000000000000000000000000000081526004018080602001828103825260208152602001807f6e6f7420676f6f6420696e6465786573205f737461727420616e64205f656e6481525060200191505060405180910390fd5b60008390505b8281116115eb578481815181106115b457fe5b602002602001015186858303600881106115ca57fe5b6020020151146115de5760009150506115f1565b80806001019150506115a1565b50600190505b949350505050565b828054828255906000526020600020908101928215611635579160200282015b82811115611634578251825591602001919060010190611619565b5b50905061164291906116ed565b5090565b604051806101000160405280600890602082028038833980820191505090505090565b604051806101000160405280600890602082028038833980820191505090505090565b82600881019282156116bb579160200282015b828111156116ba57825182559160200191906001019061169f565b5b5090506116c891906116ed565b5090565b50805460008255906000526020600020908101906116ea91906116ed565b50565b61170f91905b8082111561170b5760008160009055506001016116f3565b5090565b9056fea165627a7a72305820063c008e97b7e25096284b106208a72cba67c6cf84f31d90e1e7ed1c2a9f50cb0029",
  "source": "pragma solidity ^0.5.1;\n\nlibrary SafeMath {\n    \n    function add(uint256 a, uint256 b) internal pure returns (uint256) {\n        uint256 c = a + b;\n        require(c >= a, \"SafeMath: addition overflow\");\n\n        return c;\n    }\n\n   \n    function sub(uint256 a, uint256 b) internal pure returns (uint256) {\n        return sub(a, b, \"SafeMath: subtraction overflow\");\n    }\n\n    \n    function sub(uint256 a, uint256 b, string memory errorMessage) internal pure returns (uint256) {\n        require(b <= a, errorMessage);\n        uint256 c = a - b;\n\n        return c;\n    }\n\n    \n    function mul(uint256 a, uint256 b) internal pure returns (uint256) {\n        // Gas optimization: this is cheaper than requiring 'a' not being zero, but the\n        // benefit is lost if 'b' is also tested.\n        // See: https://github.com/OpenZeppelin/openzeppelin-contracts/pull/522\n        if (a == 0) {\n            return 0;\n        }\n\n        uint256 c = a * b;\n        require(c / a == b, \"SafeMath: multiplication overflow\");\n\n        return c;\n    }\n\n    \n    function div(uint256 a, uint256 b) internal pure returns (uint256) {\n        return div(a, b, \"SafeMath: division by zero\");\n    }\n\n    function div(uint256 a, uint256 b, string memory errorMessage) internal pure returns (uint256) {\n        // Solidity only automatically asserts when dividing by 0\n        require(b > 0, errorMessage);\n        uint256 c = a / b;\n        // assert(a == b * c + a % b); // There is no case in which this doesn't hold\n\n        return c;\n    }\n\n    function mod(uint256 a, uint256 b) internal pure returns (uint256) {\n        return mod(a, b, \"SafeMath: modulo by zero\");\n    }\n\n    function mod(uint256 a, uint256 b, string memory errorMessage) internal pure returns (uint256) {\n        require(b != 0, errorMessage);\n        return a % b;\n    }\n}\n\ncontract Ownable {\n\n    address public owner = msg.sender;\n    // adress zero = 0x0000000000000000000000000000000000000000;\n    modifier onlyOwner {\n        require(msg.sender == owner, \"only owner can execute this\");\n        _;\n    }\n\n    function transferOwnership(address _newOwner) public onlyOwner {\n        owner = _newOwner;\n    }\n}\n\n\ncontract Lottery is Ownable{\n    \n    using SafeMath for uint;\n    \n    uint price = 1000000000000000000; //TODO change it  // 1 ether =  10000000000000000000 wei\n    uint fee = 20000000000000000 ; // 2% fee\n    \n    uint[qntNumbers] winnerGame ;\n    \n    //winnerGame = [1,2,3,4,5,6,7,8];\n    \n    //[7,15,18,19,29,30,46,50]  for 60 nummbers\n     //[6,7,9,10,11,15,18,19] for 20\n     //[2,10,18,19,20,22,27,29] for 32\n    \n    uint constant qntNumbers  = 8;\n    uint constant numberMax = 32; //TODO make the caculations and change it\n    \n    uint timerDelay = 45; //60*60*23; //23h\n    uint lastGameTime= now;\n    \n    //a game is 8 numbers of the array: if array.lenght == 16, nbGames == 2\n    mapping(address=>uint[]) addressToGame;\n    address payable[] players;\n    address payable[]  winners;\n    \n    uint Prize;\n    uint ownerReward;\n    \n    uint[] winnersGameList;\n    \n    \n    \n    function isNewPlayer(address _address) private view returns(bool){\n        //address NewPlayer = msg.sender;\n        \n        for (uint i=0;i<players.length;i++){\n            if ( players[i]==_address){\n                \n                return false;\n            }\n        }\n        return true;\n        \n        \n    }\n    \n    event printInt(uint integer);\n    event printBool(bool boolean);\n    \n    \n    //TODO make a test for multiple games\n    function postGame(uint[qntNumbers] memory _numbers) public payable costs(price) returns (uint[] memory){\n        \n        Prize +=price-fee;\n        ownerReward = address(this).balance - Prize;\n        \n        assert(address(this).balance >= Prize);\n        \n        address payable NewPlayer = msg.sender;\n        bool _isNewPlayer = isNewPlayer(NewPlayer);\n        \n        \n        \n        emit printBool(_isNewPlayer);\n        \n        if (_isNewPlayer){\n            \n            players.push(NewPlayer);\n            addressToGame[NewPlayer] = _numbers;\n            \n        }else{\n            \n            uint[] storage olderGames = addressToGame[NewPlayer];\n        \n                //uint totalNumbers = olderGames.length;\n                \n                //emit printInt(totalNumbers);\n                \n                for (uint i=0;i<qntNumbers;i++){\n                    \n                    olderGames.push(_numbers[i]);\n                    \n                    }\n                \n                    \n             }\n             \n        //return _isNewPlayer;\n        \n        if ( getTimeNextGame()==0){\n            \n            lastGameTime = now;\n            \n            playRound();\n            \n        }\n \n        \n        return addressToGame[NewPlayer];\n        \n    }\n    \n    \n\n    //TODO the entiry function\n    function getEntropy() private returns(uint){\n        \n        return 1;\n        \n    }\n    \n    \n\n    function getWinnerGame() public returns(uint[qntNumbers] memory){\n        \n       \n        \n \n        bytes4[8] memory x = [bytes4(0) , 0 ,0,0,0,0,0,0 ];\n        \n        uint entropy = getEntropy();\n        /*uint blockNumber = block.number;\n        bytes32 blockHash1 = blockhash(blockNumber-1);\n        bytes32 blockHash6 = blockhash(blockNumber-6);\n        bytes32 blockHash13 = blockhash(blockNumber-13);*/\n        \n        bytes32 hash = keccak256(abi.encodePacked(entropy));//,ListWinners,games,blockHash1,blockHash6,blockHash13));\n        //return hash;\n        \n        assembly {\n            mstore(x, hash)\n            mstore(add(x, 28), hash)\n            mstore(add(x, 56), hash)\n            mstore(add(x, 84), hash)\n            mstore(add(x, 112), hash)\n            mstore(add(x, 140), hash)\n            mstore(add(x, 168), hash)\n            mstore(add(x, 196), hash)\n        }\n        \n        uint n0 = uint32 (x[0]); \n        n0 = n0%numberMax;\n        uint n1 = uint32 (x[1]); \n        n1 = n1%numberMax;\n        uint n2 = uint32 (x[2]); \n        n2 = n2%numberMax;\n        uint n3 = uint32 (x[3]); \n        n3 = n3%numberMax;\n        uint n4 = uint32 (x[4]); \n        n4 = n4%numberMax;\n        uint n5 = uint32 (x[5]); \n        n5 = n5%numberMax;\n        uint n6 = uint32 (x[6]); \n        n6 = n6%numberMax;\n        uint n7 = uint32 (x[7]); \n        n7 = n7%numberMax;\n        \n        uint[qntNumbers] memory tabNumbers = [n0,n1,n2,n3,n4,n5,n6,n7];\n        \n        quickSort(tabNumbers,0,tabNumbers.length -1);\n        \n        removeDoubles(tabNumbers);\n        \n        winnerGame = tabNumbers;\n        \n        //payer();\n        \n        lastGameTime = now;\n        \n        return winnerGame;\n        \n        \n        \n    }\n    \n    function removeDoubles(uint[qntNumbers] memory tab) private{\n        \n        bool a=true;\n        bool b=true;\n        bool c=true;\n        bool d=true;\n        \n       \n            for (uint i=0;i<tab.length;i++){\n                \n                if(tab[0]==0){\n                    tab[0]=numberMax;\n                }\n                \n                if (tab[i]> numberMax){\n                    tab[i] = tab[i]%numberMax;\n                    b=false;\n                }\n                \n                if ( (i+1 < tab.length)&& (tab[i]==tab[i+1])){\n                    \n                    tab[i+1]= tab[i+1] + 1;\n                    c=false;\n               }\n            }\n            \n            if(a&&b&&c&&d){\n                quickSort(tab,0,tab.length -1);\n                //emit tabCheck(tab);\n                return;\n            }\n            \n            quickSort(tab,0,tab.length -1);\n            \n            removeDoubles(tab);\n         \n    }\n    \n    function quickSort(uint[qntNumbers] memory tab, uint left, uint right) private {\n        uint i = left;\n        uint j = right;\n        uint mid = tab[left + (right - left) / 2];\n        while (i <= j) {\n            while (tab[i] < mid) i++;\n            while (mid < tab[j]) j--;\n            if (i <= j) {\n                (tab[i], tab[j]) = (tab[j], tab[i]);\n                i++;\n                j--;\n            }\n        }\n        if (left < j)\n            quickSort(tab, left, j);\n        if (i < right)\n            quickSort(tab, i, right);\n        \n    }\n    \n    /*function setWinnerGameeMannually(uint[qntNumbers] memory _winnerGame) public onlyOwner{\n        \n        winnerGame = _winnerGame;\n    }*/\n    \n    function checkIfGameIsWin(uint[qntNumbers] memory _winnerGame ,uint[] memory _gameArray, uint _start,uint _end) private returns(bool){\n        \n        \n        \n        \n        require( _end -_start==qntNumbers-1,\"not good quantity of numbers\");\n        require( (_end+1)%8 == 0 , \"not good indexes _start and _end\");\n        \n        //require( _gameArray)\n        \n        \n        for(uint i=_start;i<=_end;i++){\n            \n            if (_winnerGame[i-_start]!=_gameArray[i]){\n                \n                return false;\n                \n            }\n            \n            \n        }\n        return true;\n        \n    }\n    \n    function searchWinGameInArray(uint[qntNumbers] memory __winnerGame, uint[] memory __gameArray ) private returns(bool){\n        \n        uint nbGamesTotal = __gameArray.length/qntNumbers;\n        \n        for (uint n = 0;n<nbGamesTotal;n++){\n            \n            uint start = qntNumbers*n;\n            uint end = qntNumbers*n+qntNumbers-1;\n            \n            if (checkIfGameIsWin(__winnerGame,__gameArray,start,end)){\n                \n                return true;\n                \n                \n            }\n            \n            \n        }\n        return false;\n        \n    }\n    \n    \n    //TODO run the test to see if the winners are deleted from players list\n    function findWinners() private {// returns (address payable[] memory){\n        \n        winnerGame = getWinnerGame();\n        \n        for(uint i=0;i<winnerGame.length;i++){\n            \n            winnersGameList.push(winnerGame[i]);\n            \n        }\n        \n        \n        \n        for(uint i=0; i<players.length;i++){\n            \n            address payable currentPlayer = players[i];\n            uint[] storage gameListCurrentPlayer = addressToGame[currentPlayer];\n            \n            if(searchWinGameInArray(winnerGame,gameListCurrentPlayer)){\n                \n                //pushes the winner to the wining list\n                winners.push(currentPlayer);\n                \n            }\n            \n            //delete the player from the list of player, even if he doesnt win\n            delete addressToGame[currentPlayer];\n            \n            \n        }\n        \n        //we could remove the return, but its easier to debug like this\n        //return winners;\n        \n    }\n    \n    \n    function payerWinners() private returns (uint) {\n        \n        uint totalWinners = winners.length;\n        \n        if (totalWinners == 0){\n            \n            return 0;\n            \n        }else{\n            \n            uint individualPrize = Prize/totalWinners;\n            Prize = 0;\n            \n            for(uint i=0;i<totalWinners;i++){\n                \n                winners[i].transfer(individualPrize);\n                delete winners[i];\n                \n                \n            }\n            \n            return individualPrize;\n            \n            \n        }\n        \n        \n        \n    }\n    \n    function playRound() private {\n        \n        findWinners();\n        payerWinners();\n        \n        \n    }\n        \n   modifier costs(uint amount){\n        require(msg.value >= amount, \"insuficient amount\");\n        _;\n    }\n    \n \n    function getTimeNextGame() public view returns (uint){\n        \n        uint time = timerDelay + lastGameTime - now ;\n        if (time>timerDelay){\n            time=0;\n        }\n        \n        return time;\n    }\n    \n    function getComulatedPrize() public view returns (uint){\n        //return address(this).balance;\n        return Prize;\n    }\n    \n    function getOwnerReward() public view returns (uint){\n        //return address(this).balance;\n        return ownerReward;\n    }\n    \n    function withdrawAsOwner() public onlyOwner{\n        \n        uint toTransfer = ownerReward;\n        ownerReward = 0;\n        \n        msg.sender.transfer(toTransfer);\n        \n        \n    }\n    \n    function showWinnersGame() public view returns(uint[] memory){\n        \n        return winnersGameList;\n        \n    }\n    \n    \n}\n\n\n",
  "sourcePath": "/Users/thiagoalmeida/Documents/GitHub/lottery-dapp-front/contracts/Lottery.sol",
  "compiler": {
    "name": "solc",
    "version": "0.5.8+commit.23d335f2.Emscripten.clang"
  },
  "schemaVersion": "3.0.16",
  "updatedAt": "2020-03-19T09:03:28.157Z",
  "devdoc": {
    "methods": {}
  },
  "userdoc": {
    "methods": {}
  }
}