{
  "contractName": "Lottery",
  "abi": [
    {
      "constant": true,
      "inputs": [],
      "name": "owner",
      "outputs": [
        {
          "name": "",
          "type": "address"
        }
      ],
      "payable": false,
      "stateMutability": "view",
      "type": "function"
    },
    {
      "constant": false,
      "inputs": [
        {
          "name": "_newOwner",
          "type": "address"
        }
      ],
      "name": "transferOwnership",
      "outputs": [],
      "payable": false,
      "stateMutability": "nonpayable",
      "type": "function"
    },
    {
      "anonymous": false,
      "inputs": [
        {
          "indexed": false,
          "name": "integer",
          "type": "uint256"
        }
      ],
      "name": "printInt",
      "type": "event"
    },
    {
      "anonymous": false,
      "inputs": [
        {
          "indexed": false,
          "name": "boolean",
          "type": "bool"
        }
      ],
      "name": "printBool",
      "type": "event"
    },
    {
      "anonymous": false,
      "inputs": [
        {
          "indexed": false,
          "name": "_numbers",
          "type": "uint256[8]"
        }
      ],
      "name": "gamePosted",
      "type": "event"
    },
    {
      "constant": false,
      "inputs": [
        {
          "name": "_numbers",
          "type": "uint256[8]"
        }
      ],
      "name": "postGame",
      "outputs": [
        {
          "name": "",
          "type": "uint256[]"
        }
      ],
      "payable": true,
      "stateMutability": "payable",
      "type": "function"
    },
    {
      "constant": false,
      "inputs": [],
      "name": "getWinnerGame",
      "outputs": [
        {
          "name": "",
          "type": "uint256[8]"
        }
      ],
      "payable": false,
      "stateMutability": "nonpayable",
      "type": "function"
    },
    {
      "constant": true,
      "inputs": [],
      "name": "getTimeNextGame",
      "outputs": [
        {
          "name": "",
          "type": "uint256"
        }
      ],
      "payable": false,
      "stateMutability": "view",
      "type": "function"
    },
    {
      "constant": true,
      "inputs": [],
      "name": "getLastGameTime",
      "outputs": [
        {
          "name": "",
          "type": "uint256"
        }
      ],
      "payable": false,
      "stateMutability": "view",
      "type": "function"
    },
    {
      "constant": true,
      "inputs": [],
      "name": "getNextGameTimestamp",
      "outputs": [
        {
          "name": "",
          "type": "uint256"
        }
      ],
      "payable": false,
      "stateMutability": "view",
      "type": "function"
    },
    {
      "constant": true,
      "inputs": [],
      "name": "getComulatedPrize",
      "outputs": [
        {
          "name": "",
          "type": "uint256"
        }
      ],
      "payable": false,
      "stateMutability": "view",
      "type": "function"
    },
    {
      "constant": true,
      "inputs": [],
      "name": "getOwnerReward",
      "outputs": [
        {
          "name": "",
          "type": "uint256"
        }
      ],
      "payable": false,
      "stateMutability": "view",
      "type": "function"
    },
    {
      "constant": false,
      "inputs": [],
      "name": "withdrawAsOwner",
      "outputs": [],
      "payable": false,
      "stateMutability": "nonpayable",
      "type": "function"
    },
    {
      "constant": true,
      "inputs": [],
      "name": "getOwner",
      "outputs": [
        {
          "name": "",
          "type": "address"
        }
      ],
      "payable": false,
      "stateMutability": "view",
      "type": "function"
    },
    {
      "constant": true,
      "inputs": [],
      "name": "showWinnersGame",
      "outputs": [
        {
          "name": "",
          "type": "uint256[]"
        }
      ],
      "payable": false,
      "stateMutability": "view",
      "type": "function"
    },
    {
      "constant": true,
      "inputs": [
        {
          "name": "_address",
          "type": "address"
        }
      ],
      "name": "showPlayersGames",
      "outputs": [
        {
          "name": "",
          "type": "uint256[]"
        }
      ],
      "payable": false,
      "stateMutability": "view",
      "type": "function"
    }
  ],
  "bytecode": "0x6080604052336000806101000a81548173ffffffffffffffffffffffffffffffffffffffff021916908373ffffffffffffffffffffffffffffffffffffffff160217905550670de0b6b3a764000060015566470de4df820000600255602d600b5542600c5534801561007057600080fd5b50611a85806100806000396000f3fe6080604052600436106100c25760003560e01c80636716466d1161007f5780638da5cb5b116100595780638da5cb5b14610396578063932004b2146103ed5780639ab23e2914610459578063f2fde38b14610484576100c2565b80636716466d146102c15780637509d8d8146102ec578063893d20e81461033f576100c2565b8063196ec54f146100c75780631d3e3d861461016d57806324a7ab16146101985780633a4a5204146101af5780633ca8d645146101da57806355af843e14610205575b600080fd5b3480156100d357600080fd5b50610116600480360360208110156100ea57600080fd5b81019080803573ffffffffffffffffffffffffffffffffffffffff1690602001909291905050506104d5565b6040518080602001828103825283818151815260200191508051906020019060200280838360005b8381101561015957808201518184015260208101905061013e565b505050509050019250505060405180910390f35b34801561017957600080fd5b5061018261056c565b6040518082815260200191505060405180910390f35b3480156101a457600080fd5b506101ad61057a565b005b3480156101bb57600080fd5b506101c4610695565b6040518082815260200191505060405180910390f35b3480156101e657600080fd5b506101ef61069f565b6040518082815260200191505060405180910390f35b61026a600480360361010081101561021c57600080fd5b810190808061010001906008806020026040519081016040528092919082600860200280828437600081840152601f19601f82011690508083019250505050505091929192905050506106a9565b6040518080602001828103825283818151815260200191508051906020019060200280838360005b838110156102ad578082015181840152602081019050610292565b505050509050019250505060405180910390f35b3480156102cd57600080fd5b506102d6610a40565b6040518082815260200191505060405180910390f35b3480156102f857600080fd5b50610301610a64565b6040518082600860200280838360005b8381101561032c578082015181840152602081019050610311565b5050505090500191505060405180910390f35b34801561034b57600080fd5b50610354610e70565b604051808273ffffffffffffffffffffffffffffffffffffffff1673ffffffffffffffffffffffffffffffffffffffff16815260200191505060405180910390f35b3480156103a257600080fd5b506103ab610e99565b604051808273ffffffffffffffffffffffffffffffffffffffff1673ffffffffffffffffffffffffffffffffffffffff16815260200191505060405180910390f35b3480156103f957600080fd5b50610402610ebe565b6040518080602001828103825283818151815260200191508051906020019060200280838360005b8381101561044557808201518184015260208101905061042a565b505050509050019250505060405180910390f35b34801561046557600080fd5b5061046e610f16565b6040518082815260200191505060405180910390f35b34801561049057600080fd5b506104d3600480360360208110156104a757600080fd5b81019080803573ffffffffffffffffffffffffffffffffffffffff169060200190929190505050610f20565b005b6060600d60008373ffffffffffffffffffffffffffffffffffffffff1673ffffffffffffffffffffffffffffffffffffffff16815260200190815260200160002080548060200260200160405190810160405280929190818152602001828054801561056057602002820191906000526020600020905b81548152602001906001019080831161054c575b50505050509050919050565b6000600b54600c5401905090565b6000809054906101000a900473ffffffffffffffffffffffffffffffffffffffff1673ffffffffffffffffffffffffffffffffffffffff163373ffffffffffffffffffffffffffffffffffffffff161461063c576040517f08c379a000000000000000000000000000000000000000000000000000000000815260040180806020018281038252601b8152602001807f6f6e6c79206f776e65722063616e20657865637574652074686973000000000081525060200191505060405180910390fd5b6000601154905060006011819055503373ffffffffffffffffffffffffffffffffffffffff166108fc829081150290604051600060405180830381858888f19350505050158015610691573d6000803e3d6000fd5b5050565b6000601154905090565b6000601054905090565b606060015480341015610724576040517f08c379a00000000000000000000000000000000000000000000000000000000081526004018080602001828103825260128152602001807f696e737566696369656e7420616d6f756e74000000000000000000000000000081525060200191505060405180910390fd5b600254600154036010600082825401925050819055506010543073ffffffffffffffffffffffffffffffffffffffff1631036011819055506010543073ffffffffffffffffffffffffffffffffffffffff1631101561077f57fe5b6000339050600061078f82611025565b90507fb83141d06b456f990d9f9acc2507ff1475ecff2869b88a9fbfb059ed7d8bb63281604051808215151515815260200191505060405180910390a1801561088c57600e8290806001815401808255809150509060018203906000526020600020016000909192909190916101000a81548173ffffffffffffffffffffffffffffffffffffffff021916908373ffffffffffffffffffffffffffffffffffffffff1602179055505084600d60008473ffffffffffffffffffffffffffffffffffffffff1673ffffffffffffffffffffffffffffffffffffffff168152602001908152602001600020906008610886929190611940565b50610929565b6000600d60008473ffffffffffffffffffffffffffffffffffffffff1673ffffffffffffffffffffffffffffffffffffffff168152602001908152602001600020905060008090505b600881101561092657818782600881106108eb57fe5b6020020151908060018154018082558091505090600182039060005260206000200160009091929091909150555080806001019150506108d5565b50505b7fc44d886c754c24ce23f2ac1364f73e5812355e5517a3235c79158f1c933a5ee1856040518082600860200280838360005b8381101561097657808201518184015260208101905061095b565b5050505090500191505060405180910390a16000610992610a40565b14156109a85742600c819055506109a76110c7565b5b600d60008373ffffffffffffffffffffffffffffffffffffffff1673ffffffffffffffffffffffffffffffffffffffff168152602001908152602001600020805480602002602001604051908101604052809291908181526020018280548015610a3157602002820191906000526020600020905b815481526020019060010190808311610a1d575b50505050509350505050919050565b60008042600c54600b5401039050600b54811115610a5d57600090505b8091505090565b610a6c61198d565b610a746119b0565b604051806101000160405280600060e01b7bffffffffffffffffffffffffffffffffffffffffffffffffffffffff19167bffffffffffffffffffffffffffffffffffffffffffffffffffffffff19168152602001600060e01b7bffffffffffffffffffffffffffffffffffffffffffffffffffffffff19168152602001600060e01b7bffffffffffffffffffffffffffffffffffffffffffffffffffffffff19168152602001600060e01b7bffffffffffffffffffffffffffffffffffffffffffffffffffffffff19168152602001600060e01b7bffffffffffffffffffffffffffffffffffffffffffffffffffffffff19168152602001600060e01b7bffffffffffffffffffffffffffffffffffffffffffffffffffffffff19168152602001600060e01b7bffffffffffffffffffffffffffffffffffffffffffffffffffffffff19168152602001600060e01b7bffffffffffffffffffffffffffffffffffffffffffffffffffffffff191681525090506000610bf16110da565b90506000816040516020018082815260200191505060405160208183030381529060405280519060200120905080835280601c84015280603884015280605484015280607084015280608c8401528060a88401528060c4840152600083600060088110610c5a57fe5b602002015160e01c63ffffffff16905060208181610c7457fe5b069050600084600160088110610c8657fe5b602002015160e01c63ffffffff16905060208181610ca057fe5b069050600085600260088110610cb257fe5b602002015160e01c63ffffffff16905060208181610ccc57fe5b069050600086600360088110610cde57fe5b602002015160e01c63ffffffff16905060208181610cf857fe5b069050600087600460088110610d0a57fe5b602002015160e01c63ffffffff16905060208181610d2457fe5b069050600088600560088110610d3657fe5b602002015160e01c63ffffffff16905060208181610d5057fe5b069050600089600660088110610d6257fe5b602002015160e01c63ffffffff16905060208181610d7c57fe5b06905060008a600760088110610d8e57fe5b602002015160e01c63ffffffff16905060208181610da857fe5b069050610db361198d565b6040518061010001604052808a8152602001898152602001888152602001878152602001868152602001858152602001848152602001838152509050610dff8160006001600803611164565b610e0881611280565b806003906008610e199291906119d3565b5042600c819055506003600880602002604051908101604052809291908260088015610e5a576020028201915b815481526020019060010190808311610e46575b50505050509c5050505050505050505050505090565b60008060009054906101000a900473ffffffffffffffffffffffffffffffffffffffff16905090565b6000809054906101000a900473ffffffffffffffffffffffffffffffffffffffff1681565b60606012805480602002602001604051908101604052809291908181526020018280548015610f0c57602002820191906000526020600020905b815481526020019060010190808311610ef8575b5050505050905090565b6000600c54905090565b6000809054906101000a900473ffffffffffffffffffffffffffffffffffffffff1673ffffffffffffffffffffffffffffffffffffffff163373ffffffffffffffffffffffffffffffffffffffff1614610fe2576040517f08c379a000000000000000000000000000000000000000000000000000000000815260040180806020018281038252601b8152602001807f6f6e6c79206f776e65722063616e20657865637574652074686973000000000081525060200191505060405180910390fd5b806000806101000a81548173ffffffffffffffffffffffffffffffffffffffff021916908373ffffffffffffffffffffffffffffffffffffffff16021790555050565b600080600090505b600e805490508110156110bc578273ffffffffffffffffffffffffffffffffffffffff16600e828154811061105e57fe5b9060005260206000200160009054906101000a900473ffffffffffffffffffffffffffffffffffffffff1673ffffffffffffffffffffffffffffffffffffffff1614156110af5760009150506110c2565b808060010191505061102d565b50600190505b919050565b6110cf6113ff565b6110d7611660565b50565b6000806000905060008090505b60128054905081101561111d576012818154811061110157fe5b90600052602060002001548201915080806001019150506110e7565b5060004244836040516020018084815260200183815260200182815260200193505050506040516020818303038152906040528051906020012060001c9050809250505090565b6000829050600082905060008560028686038161117d57fe5b0486016008811061118a57fe5b602002015190505b818311611250575b808684600881106111a757fe5b602002015110156111bf57828060010193505061119a565b5b8582600881106111cc57fe5b60200201518110156111e6578180600190039250506111c0565b81831161124b578582600881106111f957fe5b602002015186846008811061120a57fe5b602002015187856008811061121b57fe5b6020020188856008811061122b57fe5b602002018281525082815250505082806001019350508180600190039250505b611192565b8185101561126457611263868684611164565b5b8383101561127857611277868486611164565b5b505050505050565b60006001905060006001905060006001905060006001905060008090505b60088110156113a3576000866000600881106112b657fe5b602002015114156112da576020866000600881106112d057fe5b6020020181815250505b60208682600881106112e857fe5b6020020151111561132857602086826008811061130157fe5b60200201518161130d57fe5b0686826008811061131a57fe5b602002018181525050600093505b60086001820110801561135d575085600182016008811061134557fe5b602002015186826008811061135657fe5b6020020151145b1561139657600186600183016008811061137357fe5b60200201510186600183016008811061138857fe5b602002018181525050600092505b808060010191505061129e565b508380156113ae5750825b80156113b75750815b80156113c05750805b156113de576113d58560006001600803611164565b505050506113fc565b6113ee8560006001600803611164565b6113f785611280565b505050505b50565b611407610a64565b60039060086114179291906119d3565b5060008090505b600881101561146e5760126003826008811061143657fe5b01549080600181540180825580915050906001820390600052602060002001600090919290919091505550808060010191505061141e565b5060008090505b600e8054905081101561165d576000600e828154811061149157fe5b9060005260206000200160009054906101000a900473ffffffffffffffffffffffffffffffffffffffff1690506000600d60008373ffffffffffffffffffffffffffffffffffffffff1673ffffffffffffffffffffffffffffffffffffffff1681526020019081526020016000209050611597600360088060200260405190810160405280929190826008801561153d576020028201915b815481526020019060010190808311611529575b50505050508280548060200260200160405190810160405280929190818152602001828054801561158d57602002820191906000526020600020905b815481526020019060010190808311611579575b5050505050611773565b1561160357600f8290806001815401808255809150509060018203906000526020600020016000909192909190916101000a81548173ffffffffffffffffffffffffffffffffffffffff021916908373ffffffffffffffffffffffffffffffffffffffff160217905550505b600d60008373ffffffffffffffffffffffffffffffffffffffff1673ffffffffffffffffffffffffffffffffffffffff168152602001908152602001600020600061164e9190611a13565b50508080600101915050611475565b50565b600080600f805490509050600081141561167e576000915050611770565b6000816010548161168b57fe5b049050600060108190555060008090505b8281101561176957600f81815481106116b157fe5b9060005260206000200160009054906101000a900473ffffffffffffffffffffffffffffffffffffffff1673ffffffffffffffffffffffffffffffffffffffff166108fc839081150290604051600060405180830381858888f19350505050158015611721573d6000803e3d6000fd5b50600f818154811061172f57fe5b9060005260206000200160006101000a81549073ffffffffffffffffffffffffffffffffffffffff0219169055808060010191505061169c565b5080925050505b90565b600080600883518161178157fe5b04905060008090505b818110156117d557600081600802905060006001600884600802010390506117b4878784846117e2565b156117c65760019450505050506117dc565b5050808060010191505061178a565b5060009150505b92915050565b600060016008038383031461185f576040517f08c379a000000000000000000000000000000000000000000000000000000000815260040180806020018281038252601c8152602001807f6e6f7420676f6f64207175616e74697479206f66206e756d626572730000000081525060200191505060405180910390fd5b60006008600184018161186e57fe5b06146118e2576040517f08c379a00000000000000000000000000000000000000000000000000000000081526004018080602001828103825260208152602001807f6e6f7420676f6f6420696e6465786573205f737461727420616e64205f656e6481525060200191505060405180910390fd5b60008390505b828111611932578481815181106118fb57fe5b6020026020010151868583036008811061191157fe5b602002015114611925576000915050611938565b80806001019150506118e8565b50600190505b949350505050565b82805482825590600052602060002090810192821561197c579160200282015b8281111561197b578251825591602001919060010190611960565b5b5090506119899190611a34565b5090565b604051806101000160405280600890602082028038833980820191505090505090565b604051806101000160405280600890602082028038833980820191505090505090565b8260088101928215611a02579160200282015b82811115611a015782518255916020019190600101906119e6565b5b509050611a0f9190611a34565b5090565b5080546000825590600052602060002090810190611a319190611a34565b50565b611a5691905b80821115611a52576000816000905550600101611a3a565b5090565b9056fea165627a7a72305820d256c818af92f5de579b33a824641017d4041b705c725522c8e7553bc14929f30029",
  "source": "pragma solidity ^0.5.1;\n\nlibrary SafeMath {\n\n    function add(uint256 a, uint256 b) internal pure returns (uint256) {\n        uint256 c = a + b;\n        require(c >= a, \"SafeMath: addition overflow\");\n\n        return c;\n    }\n\n\n    function sub(uint256 a, uint256 b) internal pure returns (uint256) {\n        return sub(a, b, \"SafeMath: subtraction overflow\");\n    }\n\n\n    function sub(uint256 a, uint256 b, string memory errorMessage) internal pure returns (uint256) {\n        require(b <= a, errorMessage);\n        uint256 c = a - b;\n\n        return c;\n    }\n\n\n    function mul(uint256 a, uint256 b) internal pure returns (uint256) {\n        // Gas optimization: this is cheaper than requiring 'a' not being zero, but the\n        // benefit is lost if 'b' is also tested.\n        // See: https://github.com/OpenZeppelin/openzeppelin-contracts/pull/522\n        if (a == 0) {\n            return 0;\n        }\n\n        uint256 c = a * b;\n        require(c / a == b, \"SafeMath: multiplication overflow\");\n\n        return c;\n    }\n\n\n    function div(uint256 a, uint256 b) internal pure returns (uint256) {\n        return div(a, b, \"SafeMath: division by zero\");\n    }\n\n    function div(uint256 a, uint256 b, string memory errorMessage) internal pure returns (uint256) {\n        // Solidity only automatically asserts when dividing by 0\n        require(b > 0, errorMessage);\n        uint256 c = a / b;\n        // assert(a == b * c + a % b); // There is no case in which this doesn't hold\n\n        return c;\n    }\n\n    function mod(uint256 a, uint256 b) internal pure returns (uint256) {\n        return mod(a, b, \"SafeMath: modulo by zero\");\n    }\n\n    function mod(uint256 a, uint256 b, string memory errorMessage) internal pure returns (uint256) {\n        require(b != 0, errorMessage);\n        return a % b;\n    }\n}\n\ncontract Ownable {\n\n    address public owner = msg.sender;\n    // adress zero = 0x0000000000000000000000000000000000000000;\n    modifier onlyOwner {\n        require(msg.sender == owner, \"only owner can execute this\");\n        _;\n    }\n\n    function transferOwnership(address _newOwner) public onlyOwner {\n        owner = _newOwner;\n    }\n}\n\n\ncontract Lottery is Ownable{\n\n    using SafeMath for uint;\n\n    uint price = 1000000000000000000; //TODO change it  // 1 ether =  10000000000000000000 wei\n    uint fee = 20000000000000000 ; // 2% fee\n\n    uint[qntNumbers] winnerGame ;\n\n    //winnerGame = [1,2,3,4,5,6,7,8];\n\n    //[7,15,18,19,29,30,46,50]  for 60 nummbers\n     //[6,7,9,10,11,15,18,19] for 20\n     //[2,10,18,19,20,22,27,29] for 32\n\n    uint constant qntNumbers  = 8;\n    uint constant numberMax = 32; //TODO make the caculations and change it\n\n    uint timerDelay = 45; //60*60*23; //23h\n    uint lastGameTime= now;\n\n    //a game is 8 numbers of the array: if array.lenght == 16, nbGames == 2\n    mapping(address=>uint[]) addressToGame;\n    address payable[] players;\n    address payable[]  winners;\n\n    uint Prize;\n    uint ownerReward;\n\n    uint[] winnersGameList;\n\n\n\n    function isNewPlayer(address _address) private view returns(bool){\n        //address NewPlayer = msg.sender;\n\n        for (uint i=0;i<players.length;i++){\n            if ( players[i]==_address){\n\n                return false;\n            }\n        }\n        return true;\n\n\n    }\n\n    event printInt(uint integer);\n    event printBool(bool boolean);\n\n    event gamePosted(uint[qntNumbers] _numbers);\n\n\n    //TODO make a test for multiple games\n    function postGame(uint[qntNumbers] memory _numbers) public payable costs(price) returns (uint[] memory){\n\n        Prize +=price-fee;\n        ownerReward = address(this).balance - Prize;\n\n        assert(address(this).balance >= Prize);\n\n        address payable NewPlayer = msg.sender;\n        bool _isNewPlayer = isNewPlayer(NewPlayer);\n\n\n\n        emit printBool(_isNewPlayer);\n\n        if (_isNewPlayer){\n\n            players.push(NewPlayer);\n            addressToGame[NewPlayer] = _numbers;\n\n        }else{\n\n            uint[] storage olderGames = addressToGame[NewPlayer];\n\n                //uint totalNumbers = olderGames.length;\n\n                //emit printInt(totalNumbers);\n\n                for (uint i=0;i<qntNumbers;i++){\n\n                    olderGames.push(_numbers[i]);\n\n                    }\n\n\n             }\n\n        emit gamePosted(_numbers);\n\n        //return _isNewPlayer;\n\n        if ( getTimeNextGame()==0){\n\n            lastGameTime = now;\n\n            playRound();\n\n        }\n\n\n        return addressToGame[NewPlayer];\n\n    }\n\n\n\n\n    function getEntropy() private view returns(uint){\n\n        //Uncomment this secction to get real entropy\n\n\n\n        uint added = 0;\n\n        for(uint i=0;i<winnersGameList.length;i++){\n\n            added += winnersGameList[i];\n        }\n\n\n        uint entropy = uint(keccak256(abi.encodePacked(block.timestamp, block.difficulty,added)));\n\n        return entropy;\n\n        \n\n        //[2,10,18,19,20,22,27,29] for 32 winning game for entropy 1;\n        return 1;\n\n    }\n\n\n\n    function getWinnerGame() public returns(uint[qntNumbers] memory){\n\n\n\n\n        bytes4[8] memory x = [bytes4(0) , 0 ,0,0,0,0,0,0 ];\n\n        uint entropy = getEntropy();\n        /*uint blockNumber = block.number;\n        bytes32 blockHash1 = blockhash(blockNumber-1);\n        bytes32 blockHash6 = blockhash(blockNumber-6);\n        bytes32 blockHash13 = blockhash(blockNumber-13);*/\n\n        bytes32 hash = keccak256(abi.encodePacked(entropy));//,ListWinners,games,blockHash1,blockHash6,blockHash13));\n        //return hash;\n\n        assembly {\n            mstore(x, hash)\n            mstore(add(x, 28), hash)\n            mstore(add(x, 56), hash)\n            mstore(add(x, 84), hash)\n            mstore(add(x, 112), hash)\n            mstore(add(x, 140), hash)\n            mstore(add(x, 168), hash)\n            mstore(add(x, 196), hash)\n        }\n\n        uint n0 = uint32 (x[0]);\n        n0 = n0%numberMax;\n        uint n1 = uint32 (x[1]);\n        n1 = n1%numberMax;\n        uint n2 = uint32 (x[2]);\n        n2 = n2%numberMax;\n        uint n3 = uint32 (x[3]);\n        n3 = n3%numberMax;\n        uint n4 = uint32 (x[4]);\n        n4 = n4%numberMax;\n        uint n5 = uint32 (x[5]);\n        n5 = n5%numberMax;\n        uint n6 = uint32 (x[6]);\n        n6 = n6%numberMax;\n        uint n7 = uint32 (x[7]);\n        n7 = n7%numberMax;\n\n        uint[qntNumbers] memory tabNumbers = [n0,n1,n2,n3,n4,n5,n6,n7];\n\n        quickSort(tabNumbers,0,tabNumbers.length -1);\n\n        removeDoubles(tabNumbers);\n\n        winnerGame = tabNumbers;\n\n        //payer();\n\n        lastGameTime = now;\n\n        return winnerGame;\n\n\n\n    }\n\n    function removeDoubles(uint[qntNumbers] memory tab) private{\n\n        bool a=true;\n        bool b=true;\n        bool c=true;\n        bool d=true;\n\n\n            for (uint i=0;i<tab.length;i++){\n\n                if(tab[0]==0){\n                    tab[0]=numberMax;\n                }\n\n                if (tab[i]> numberMax){\n                    tab[i] = tab[i]%numberMax;\n                    b=false;\n                }\n\n                if ( (i+1 < tab.length)&& (tab[i]==tab[i+1])){\n\n                    tab[i+1]= tab[i+1] + 1;\n                    c=false;\n               }\n            }\n\n            if(a&&b&&c&&d){\n                quickSort(tab,0,tab.length -1);\n                //emit tabCheck(tab);\n                return;\n            }\n\n            quickSort(tab,0,tab.length -1);\n\n            removeDoubles(tab);\n\n    }\n\n    function quickSort(uint[qntNumbers] memory tab, uint left, uint right) private {\n        uint i = left;\n        uint j = right;\n        uint mid = tab[left + (right - left) / 2];\n        while (i <= j) {\n            while (tab[i] < mid) i++;\n            while (mid < tab[j]) j--;\n            if (i <= j) {\n                (tab[i], tab[j]) = (tab[j], tab[i]);\n                i++;\n                j--;\n            }\n        }\n        if (left < j)\n            quickSort(tab, left, j);\n        if (i < right)\n            quickSort(tab, i, right);\n\n    }\n\n    /*function setWinnerGameeMannually(uint[qntNumbers] memory _winnerGame) public onlyOwner{\n\n        winnerGame = _winnerGame;\n    }*/\n\n    function checkIfGameIsWin(uint[qntNumbers] memory _winnerGame ,uint[] memory _gameArray, uint _start,uint _end) private pure returns(bool){\n\n\n\n\n        require( _end -_start==qntNumbers-1,\"not good quantity of numbers\");\n        require( (_end+1)%8 == 0 , \"not good indexes _start and _end\");\n\n        //require( _gameArray)\n\n\n        for(uint i=_start;i<=_end;i++){\n\n            if (_winnerGame[i-_start]!=_gameArray[i]){\n\n                return false;\n\n            }\n\n\n        }\n        return true;\n\n    }\n\n    function searchWinGameInArray(uint[qntNumbers] memory __winnerGame, uint[] memory __gameArray ) private pure returns(bool){\n\n        uint nbGamesTotal = __gameArray.length/qntNumbers;\n\n        for (uint n = 0;n<nbGamesTotal;n++){\n\n            uint start = qntNumbers*n;\n            uint end = qntNumbers*n+qntNumbers-1;\n\n            if (checkIfGameIsWin(__winnerGame,__gameArray,start,end)){\n\n                return true;\n\n\n            }\n\n\n        }\n        return false;\n\n    }\n\n\n    //TODO run the test to see if the winners are deleted from players list\n    function findWinners() private {// returns (address payable[] memory){\n\n        winnerGame = getWinnerGame();\n\n        for(uint i=0;i<winnerGame.length;i++){\n\n            winnersGameList.push(winnerGame[i]);\n\n        }\n\n\n\n        for(uint i=0; i<players.length;i++){\n\n            address payable currentPlayer = players[i];\n            uint[] storage gameListCurrentPlayer = addressToGame[currentPlayer];\n\n            if(searchWinGameInArray(winnerGame,gameListCurrentPlayer)){\n\n                //pushes the winner to the wining list\n                winners.push(currentPlayer);\n\n            }\n\n            //delete the player from the list of player, even if he doesnt win\n            delete addressToGame[currentPlayer];\n\n\n        }\n\n        //we could remove the return, but its easier to debug like this\n        //return winners;\n\n    }\n\n\n    function payerWinners() private returns (uint) {\n\n        uint totalWinners = winners.length;\n\n        if (totalWinners == 0){\n\n            return 0;\n\n        }else{\n\n            uint individualPrize = Prize/totalWinners;\n            Prize = 0;\n\n            for(uint i=0;i<totalWinners;i++){\n\n                winners[i].transfer(individualPrize);\n                delete winners[i];\n\n\n            }\n\n            return individualPrize;\n\n\n        }\n\n\n\n    }\n\n    function playRound() private {\n\n        findWinners();\n        payerWinners();\n\n\n    }\n\n   modifier costs(uint amount){\n        require(msg.value >= amount, \"insuficient amount\");\n        _;\n    }\n\n\n    function getTimeNextGame() public view returns (uint){\n\n        uint time = timerDelay + lastGameTime - now ;\n        if (time>timerDelay){\n            time=0;\n        }\n\n        return time;\n    }\n\n    function getLastGameTime() public view returns(uint){\n\n        return lastGameTime;\n\n    }\n    function getNextGameTimestamp() public view returns(uint){\n\n        return lastGameTime+timerDelay;\n\n    }\n\n    function getComulatedPrize() public view returns (uint){\n        //return address(this).balance;\n        return Prize;\n    }\n\n    function getOwnerReward() public view returns (uint){\n        //return address(this).balance;\n        return ownerReward;\n    }\n\n    function withdrawAsOwner() public onlyOwner{\n\n        uint toTransfer = ownerReward;\n        ownerReward = 0;\n\n        msg.sender.transfer(toTransfer);\n\n\n    }\n\n    function getOwner() public view returns (address){\n\n      return owner;\n    }\n\n    function showWinnersGame() public view returns(uint[] memory){\n\n        return winnersGameList;\n\n    }\n    function showPlayersGames(address _address) public view returns(uint[] memory){\n      return addressToGame[_address];\n\n    }\n\n\n}\n",
  "sourcePath": "/Users/thiagoalmeida/Documents/GitHub/lottery-dapp-front/contracts/Lottery.sol",
  "compiler": {
    "name": "solc",
    "version": "0.5.8+commit.23d335f2.Emscripten.clang"
  },
  "schemaVersion": "3.0.16",
  "updatedAt": "2020-04-22T14:30:16.985Z",
  "devdoc": {
    "methods": {}
  },
  "userdoc": {
    "methods": {}
  }
}